{
  "contractName": "FundList",
  "abi": [
    {
      "inputs": [],
      "payable": false,
      "stateMutability": "nonpayable",
      "type": "constructor"
    },
    {
      "anonymous": false,
      "inputs": [
        {
          "indexed": false,
          "name": "name",
          "type": "bytes32"
        },
        {
          "indexed": false,
          "name": "fundCount",
          "type": "uint256"
        },
        {
          "indexed": false,
          "name": "fundOwner",
          "type": "address"
        }
      ],
      "name": "FundCreated",
      "type": "event"
    },
    {
      "anonymous": false,
      "inputs": [
        {
          "indexed": false,
          "name": "name",
          "type": "bytes32"
        },
        {
          "indexed": false,
          "name": "investor",
          "type": "address"
        },
        {
          "indexed": false,
          "name": "investment",
          "type": "uint256"
        }
      ],
      "name": "Investment",
      "type": "event"
    },
    {
      "anonymous": false,
      "inputs": [
        {
          "indexed": false,
          "name": "name",
          "type": "bytes32"
        },
        {
          "indexed": false,
          "name": "investor",
          "type": "address"
        },
        {
          "indexed": false,
          "name": "fee",
          "type": "uint256"
        }
      ],
      "name": "FeesPaid",
      "type": "event"
    },
    {
      "anonymous": false,
      "inputs": [
        {
          "indexed": false,
          "name": "name",
          "type": "bytes32"
        },
        {
          "indexed": false,
          "name": "fee",
          "type": "uint256"
        }
      ],
      "name": "FeesCollected",
      "type": "event"
    },
    {
      "anonymous": false,
      "inputs": [
        {
          "indexed": false,
          "name": "name",
          "type": "bytes32"
        },
        {
          "indexed": false,
          "name": "investor",
          "type": "address"
        },
        {
          "indexed": false,
          "name": "investment",
          "type": "uint256"
        },
        {
          "indexed": false,
          "name": "fees",
          "type": "uint256"
        }
      ],
      "name": "FundsWithdrawn",
      "type": "event"
    },
    {
      "constant": false,
      "inputs": [
        {
          "name": "_name",
          "type": "bytes32"
        },
        {
          "name": "_fundOwner",
          "type": "address"
        },
        {
          "name": "_investment",
          "type": "uint256"
        },
        {
          "name": "_feeRate",
          "type": "uint256"
        },
        {
          "name": "_paymentCycle",
          "type": "uint256"
        }
      ],
      "name": "initializeFund",
      "outputs": [],
      "payable": true,
      "stateMutability": "payable",
      "type": "function"
    },
    {
      "constant": true,
      "inputs": [
        {
          "name": "_name",
          "type": "bytes32"
        },
        {
          "name": "_investor",
          "type": "address"
        }
      ],
      "name": "isInvestor",
      "outputs": [
        {
          "name": "",
          "type": "bool"
        }
      ],
      "payable": false,
      "stateMutability": "view",
      "type": "function"
    },
    {
      "constant": false,
      "inputs": [
        {
          "name": "_name",
          "type": "bytes32"
        },
        {
          "name": "_investment",
          "type": "uint256"
        },
        {
          "name": "_investor",
          "type": "address"
        }
      ],
      "name": "Invest",
      "outputs": [],
      "payable": true,
      "stateMutability": "payable",
      "type": "function"
    },
    {
      "constant": true,
      "inputs": [
        {
          "name": "_name",
          "type": "bytes32"
        }
      ],
      "name": "checkFeeRate",
      "outputs": [
        {
          "name": "",
          "type": "uint256"
        }
      ],
      "payable": false,
      "stateMutability": "view",
      "type": "function"
    },
    {
      "constant": false,
      "inputs": [
        {
          "name": "_name",
          "type": "bytes32"
        },
        {
          "name": "_timePeriod",
          "type": "uint256"
        },
        {
          "name": "_investor",
          "type": "address"
        }
      ],
      "name": "payFee",
      "outputs": [],
      "payable": false,
      "stateMutability": "nonpayable",
      "type": "function"
    },
    {
      "constant": true,
      "inputs": [
        {
          "name": "_name",
          "type": "bytes32"
        },
        {
          "name": "_investor",
          "type": "address"
        }
      ],
      "name": "checkPaymentCycleStart",
      "outputs": [
        {
          "name": "",
          "type": "uint256"
        }
      ],
      "payable": false,
      "stateMutability": "view",
      "type": "function"
    },
    {
      "constant": true,
      "inputs": [
        {
          "name": "_name",
          "type": "bytes32"
        }
      ],
      "name": "getFundDetails",
      "outputs": [
        {
          "name": "",
          "type": "bytes32"
        },
        {
          "name": "",
          "type": "address"
        },
        {
          "name": "",
          "type": "uint256"
        },
        {
          "name": "",
          "type": "uint256"
        }
      ],
      "payable": false,
      "stateMutability": "view",
      "type": "function"
    },
    {
      "constant": true,
      "inputs": [
        {
          "name": "_name",
          "type": "bytes32"
        },
        {
          "name": "_addr",
          "type": "address"
        }
      ],
      "name": "getFundDetails2",
      "outputs": [
        {
          "name": "",
          "type": "uint256"
        },
        {
          "name": "",
          "type": "bool"
        },
        {
          "name": "",
          "type": "uint256"
        },
        {
          "name": "",
          "type": "uint256"
        }
      ],
      "payable": false,
      "stateMutability": "view",
      "type": "function"
    }
  ],
  "bytecode": "0x608060405234801561001057600080fd5b50336000806101000a81548173ffffffffffffffffffffffffffffffffffffffff021916908373ffffffffffffffffffffffffffffffffffffffff1602179055506000600281905550611179806100686000396000f30060806040526004361061008e576000357c0100000000000000000000000000000000000000000000000000000000900463ffffffff16806313c4267614610093578063316e1531146100e1578063628a0a87146101435780636ca0b5c8146101c1578063a73651741461022a578063b893565d146102b8578063cfe9b4e71461031d578063d30b538614610362575b600080fd5b6100df600480360381019080803560001916906020019092919080359060200190929190803573ffffffffffffffffffffffffffffffffffffffff1690602001909291905050506103bd565b005b6101416004803603810190808035600019169060200190929190803573ffffffffffffffffffffffffffffffffffffffff169060200190929190803590602001909291908035906020019092919080359060200190929190505050610535565b005b34801561014f57600080fd5b506101926004803603810190808035600019169060200190929190803573ffffffffffffffffffffffffffffffffffffffff1690602001909291905050506106c4565b604051808581526020018415151515815260200183815260200182815260200194505050505060405180910390f35b3480156101cd57600080fd5b506102106004803603810190808035600019169060200190929190803573ffffffffffffffffffffffffffffffffffffffff169060200190929190505050610827565b604051808215151515815260200191505060405180910390f35b34801561023657600080fd5b506102596004803603810190808035600019169060200190929190505050610849565b6040518085600019166000191681526020018473ffffffffffffffffffffffffffffffffffffffff1673ffffffffffffffffffffffffffffffffffffffff16815260200183815260200182815260200194505050505060405180910390f35b3480156102c457600080fd5b506103076004803603810190808035600019169060200190929190803573ffffffffffffffffffffffffffffffffffffffff169060200190929190505050610906565b6040518082815260200191505060405180910390f35b34801561032957600080fd5b5061034c600480360381019080803560001916906020019092919050505061096f565b6040518082815260200191505060405180910390f35b34801561036e57600080fd5b506103bb600480360381019080803560001916906020019092919080359060200190929190803573ffffffffffffffffffffffffffffffffffffffff169060200190929190505050610983565b005b6000809054906101000a900473ffffffffffffffffffffffffffffffffffffffff1673ffffffffffffffffffffffffffffffffffffffff163373ffffffffffffffffffffffffffffffffffffffff161415156104a7576040517f08c379a00000000000000000000000000000000000000000000000000000000081526004018080602001828103825260238152602001807f4d6573736167652053656e646572206973206e6f742041646d696e697374726181526020017f746f72000000000000000000000000000000000000000000000000000000000081525060400191505060405180910390fd5b6104b5600184848434610aff565b7f2b158127221737cd431395104f48aa6534ed782d1c9c8b2ac852d925c0c1e9c18382846040518084600019166000191681526020018373ffffffffffffffffffffffffffffffffffffffff1673ffffffffffffffffffffffffffffffffffffffff168152602001828152602001935050505060405180910390a1505050565b6000809054906101000a900473ffffffffffffffffffffffffffffffffffffffff1673ffffffffffffffffffffffffffffffffffffffff163373ffffffffffffffffffffffffffffffffffffffff1614151561061f576040517f08c379a00000000000000000000000000000000000000000000000000000000081526004018080602001828103825260238152602001807f4d6573736167652053656e646572206973206e6f742041646d696e697374726181526020017f746f72000000000000000000000000000000000000000000000000000000000081525060400191505060405180910390fd5b61062e60018686868686610cd0565b6002600081548092919060010191905055507f1936274dd5f17a14226bac98f04da5d53136534654cd5e659d4f20b2fa09a85e85600254866040518084600019166000191681526020018381526020018273ffffffffffffffffffffffffffffffffffffffff1673ffffffffffffffffffffffffffffffffffffffff168152602001935050505060405180910390a15050505050565b6000806000806001600001600087600019166000191681526020019081526020016000206004015460016000016000886000191660001916815260200190815260200160002060050160008773ffffffffffffffffffffffffffffffffffffffff1673ffffffffffffffffffffffffffffffffffffffff16815260200190815260200160002060009054906101000a900460ff1660016000016000896000191660001916815260200190815260200160002060060160008873ffffffffffffffffffffffffffffffffffffffff1673ffffffffffffffffffffffffffffffffffffffff16815260200190815260200160002054600160000160008a6000191660001916815260200190815260200160002060070160008973ffffffffffffffffffffffffffffffffffffffff1673ffffffffffffffffffffffffffffffffffffffff16815260200190815260200160002054935093509350935092959194509250565b60008061083484846106c4565b90919250905050809150508091505092915050565b6000806000806001600001600086600019166000191681526020019081526020016000206000015460016000016000876000191660001916815260200190815260200160002060010160009054906101000a900473ffffffffffffffffffffffffffffffffffffffff16600160000160008860001916600019168152602001908152602001600020600201546001600001600089600019166000191681526020019081526020016000206003015493509350935093509193509193565b600060016000016000846000191660001916815260200190815260200160002060080160008373ffffffffffffffffffffffffffffffffffffffff1673ffffffffffffffffffffffffffffffffffffffff16815260200190815260200160002054905092915050565b600061097c600183610f0a565b9050919050565b60008060009054906101000a900473ffffffffffffffffffffffffffffffffffffffff1673ffffffffffffffffffffffffffffffffffffffff163373ffffffffffffffffffffffffffffffffffffffff16141515610a6f576040517f08c379a00000000000000000000000000000000000000000000000000000000081526004018080602001828103825260238152602001807f4d6573736167652053656e646572206973206e6f742041646d696e697374726181526020017f746f72000000000000000000000000000000000000000000000000000000000081525060400191505060405180910390fd5b610a7c6001858585610f41565b90507fcdaf268fff4093ca2f3a0c5457f2a78a56c4da37c292d3a66a9d8e645d2b78018483836040518084600019166000191681526020018373ffffffffffffffffffffffffffffffffffffffff1673ffffffffffffffffffffffffffffffffffffffff168152602001828152602001935050505060405180910390a150505050565b828560000160008660001916600019168152602001908152602001600020600201600082825401925050819055506001856000016000866000191660001916815260200190815260200160002060050160008473ffffffffffffffffffffffffffffffffffffffff1673ffffffffffffffffffffffffffffffffffffffff16815260200190815260200160002060006101000a81548160ff02191690831515021790555082856000016000866000191660001916815260200190815260200160002060060160008473ffffffffffffffffffffffffffffffffffffffff1673ffffffffffffffffffffffffffffffffffffffff1681526020019081526020016000208190555080856000016000866000191660001916815260200190815260200160002060070160008473ffffffffffffffffffffffffffffffffffffffff1673ffffffffffffffffffffffffffffffffffffffff1681526020019081526020016000208190555042856000016000866000191660001916815260200190815260200160002060080160008473ffffffffffffffffffffffffffffffffffffffff1673ffffffffffffffffffffffffffffffffffffffff168152602001908152602001600020819055505050505050565b848660000160008760001916600019168152602001908152602001600020600001816000191690555083866000016000876000191660001916815260200190815260200160002060010160006101000a81548173ffffffffffffffffffffffffffffffffffffffff021916908373ffffffffffffffffffffffffffffffffffffffff1602179055508286600001600087600019166000191681526020019081526020016000206002018190555081866000016000876000191660001916815260200190815260200160002060030181905550808660000160008760001916600019168152602001908152602001600020600401819055506001866000016000876000191660001916815260200190815260200160002060050160008673ffffffffffffffffffffffffffffffffffffffff1673ffffffffffffffffffffffffffffffffffffffff16815260200190815260200160002060006101000a81548160ff02191690831515021790555082866000016000876000191660001916815260200190815260200160002060060160008673ffffffffffffffffffffffffffffffffffffffff1673ffffffffffffffffffffffffffffffffffffffff168152602001908152602001600020819055506000866000016000876000191660001916815260200190815260200160002060070160008673ffffffffffffffffffffffffffffffffffffffff1673ffffffffffffffffffffffffffffffffffffffff16815260200190815260200160002081905550505050505050565b60008260000160008360001916600019168152602001908152602001600020600301546064811515610f3857fe5b04905092915050565b600080600084610f518888610f0a565b886000016000896000191660001916815260200190815260200160002060060160008773ffffffffffffffffffffffffffffffffffffffff1673ffffffffffffffffffffffffffffffffffffffff16815260200190815260200160002054811515610fb857fe5b04811515610fc257fe5b049150866000016000876000191660001916815260200190815260200160002060010160009054906101000a900473ffffffffffffffffffffffffffffffffffffffff16905081876000016000886000191660001916815260200190815260200160002060070160008673ffffffffffffffffffffffffffffffffffffffff1673ffffffffffffffffffffffffffffffffffffffff1681526020019081526020016000206000828254039250508190555081876000016000886000191660001916815260200190815260200160002060070160008373ffffffffffffffffffffffffffffffffffffffff1673ffffffffffffffffffffffffffffffffffffffff1681526020019081526020016000206000828254019250508190555042876000016000886000191660001916815260200190815260200160002060080160008673ffffffffffffffffffffffffffffffffffffffff1673ffffffffffffffffffffffffffffffffffffffff1681526020019081526020016000208190555081925050509493505050505600a165627a7a72305820baf6b590e5e9363609004355aaccababcbdbfe805497820983058718973de10a0029",
  "source": "pragma solidity ^0.4.24;\n\nlibrary Init2 {\n    struct Data { mapping(bytes32 => Fund) list; }\n\n    struct Fund {\n        //Name of fund\n        bytes32 name;\n        //Partner who Initialized the strategy\n        //Could be a multisig wallet\n        address fundOwner;\n        //amount of funds the strategy is virtually managing\n        uint totalBalance;\n        //Add fee that quant can set- in whole number, i.e. 2% is represented as 2\n        uint feeRate;\n        //Number of days in Payment Cycle\n        uint paymentCycle;\n        //maps investors to investment status- current investors return true, non-investors return false\n        mapping (address => bool) investors;\n        //maps investors to their virtual balances in the strategy\n        mapping (address => uint) virtualBalances;\n        //maps investors to the actual fee they have stored in the Strategy Hub contract\n        //fees are paid into stratOwner fee account and paid from investor fee account\n        mapping (address => uint) fees;\n        //Adoption Times for each investor\n        mapping(address => uint) paymentCycleStart;\n        //will need to add IPFS hash eventually to verify code\n    }\n\n    function initializeFund(Data storage self, bytes32 _name, address _fundOwner, uint _investment, uint _feeRate, uint _paymentCycle) \n    internal\n    {\n        //initialize strat name to _name\n        self.list[_name].name = _name;\n        //Strat owner is message sender\n        //Be careful of message sender here - might be the Fund Marketplace contract - might have to use delegatecall\n        self.list[_name].fundOwner = _fundOwner;\n        //Initial funds are the msg.value\n        self.list[_name].totalBalance = _investment;\n        //Set fee rate\n        self.list[_name].feeRate = _feeRate;\n        //Set payment cycle\n        self.list[_name].paymentCycle = _paymentCycle;\n        //set fundOwner to also be an investor\n        self.list[_name].investors[_fundOwner] = true;\n        //set fundOwner's investor balance to the msg.value\n        self.list[_name].virtualBalances[_fundOwner] = _investment;\n        //set fundOwner's fees to zero\n        self.list[_name].fees[_fundOwner] = 0;\n    }\n\n    function Invest(Data storage self, bytes32 _name, uint _investment, address _investor, uint _value) \n    internal\n    {\n        self.list[_name].totalBalance += _investment;\n        self.list[_name].investors[_investor] = true;\n        self.list[_name].virtualBalances[_investor] = _investment;\n        self.list[_name].fees[_investor] = _value;\n        self.list[_name].paymentCycleStart[_investor] = now;\n    }\n\n    //check Fee Rate - read operation from struct\n    function checkFeeRate(Data storage self, bytes32 _name) \n    internal view\n    returns (uint) {\n        return 100/self.list[_name].feeRate;\n    }\n\n    function payFee(Data storage self, bytes32 _name, uint _timePeriod, address _investor) \n    internal\n    returns(uint)\n    {\n        //Calculate payment\n        uint payment = (self.list[_name].virtualBalances[_investor]/checkFeeRate(self, _name))/_timePeriod;\n        //Owner fees account\n        address fundOwner = self.list[_name].fundOwner;\n        //Subtract payment from investor fees\n        self.list[_name].fees[_investor] -= payment;\n        self.list[_name].fees[fundOwner] += payment;\n        self.list[_name].paymentCycleStart[_investor] = now;\n        return payment;\n    }\n}\n\ncontract FundList {\n    //State Variables\n    address internal admin;\n    //mapping(bytes32 => Init.Fund) internal funds;\n    Init2.Data funds;\n    uint fundCount;\n\n    //Events\n    event FundCreated(\n        bytes32 name,\n        uint fundCount,\n        address fundOwner\n    );\n\n    event Investment(\n        bytes32 name,\n        address investor,\n        uint investment\n    );\n    \n    event FeesPaid(\n        bytes32 name,\n        address investor,\n        uint fee\n    );\n\n    event FeesCollected(\n        bytes32 name,\n        uint fee\n    );\n\n    event FundsWithdrawn(\n        bytes32 name,\n        address investor,\n        uint investment,\n        uint fees\n    );\n\n    //Administrative control\n    //Any write functions must be completed by the administrator\n    modifier isAdmin{\n        require(\n            msg.sender == admin,\n            \"Message Sender is not Administrator\"\n        );\n        _;\n    }\n\n    constructor() public {\n        admin = msg.sender;\n        //initialize strategy count to 0\n        fundCount = 0;\n    }\n\n    function initializeFund(bytes32 _name, address _fundOwner, uint _investment, uint _feeRate, uint _paymentCycle) \n    external payable\n    isAdmin()\n    {\n        Init2.initializeFund(funds, _name, _fundOwner, _investment, _feeRate, _paymentCycle);\n        //Increment fundCount\n        fundCount++;\n        emit FundCreated(_name, fundCount, _fundOwner);\n    }\n\n    //Check to see if an account is an investor in a strategy\n    //eventually change to only one parameter and use delegate call instead\n    function isInvestor(bytes32 _name, address _investor) external view returns (bool) {\n        bool result;\n        (,result,,) = getFundDetails2(_name, _investor);\n        return result;\n    }\n\n    //Make investment into particular fund\n    //Must have required funds\n    function Invest(bytes32 _name, uint _investment, address _investor) external payable\n    isAdmin()\n    {\n        Init2.Invest(funds, _name, _investment, _investor, msg.value);\n        emit Investment(_name, _investor, _investment);\n    }\n    \n    //check Fee Rate - read operation from struct\n    //was originally \"public view\" when not in library\n    function checkFeeRate(bytes32 _name) external view returns (uint) {\n        return Init2.checkFeeRate(funds, _name);\n    }\n\n    //One-time pay fee function\n    function payFee(bytes32 _name, uint _timePeriod, address _investor) external\n    isAdmin()\n    {\n        uint payment = Init2.payFee(funds, _name, _timePeriod, _investor);\n        emit FeesPaid (_name, _investor, payment);\n    }\n\n    function checkPaymentCycleStart(bytes32 _name, address _investor) external view\n    returns (uint)\n    {\n        return funds.list[_name].paymentCycleStart[_investor];\n    }\n\n    // //Owner of Strategy Collects Fees\n    // function collectFees(bytes32 _name, address fundOwner) external\n    // isAdmin()\n    // {\n    //     uint feesCollected = funds.list[_name].fees[fundOwner];\n    //     funds.list[_name].fees[fundOwner] = 0;\n    //     fundOwner.transfer(feesCollected);\n    //     emit FeesCollected(_name, feesCollected);\n    // }\n\n    // function withdrawFunds(bytes32 _name, address _investor) external\n    // isAdmin() \n    // {\n    //     //Need to make sure this matches up with withdraw philosophy\n    //     //Temporary Balance and Fees\n    //     uint bal = funds[_name].virtualBalances[_investor];\n    //     uint fees = funds[_name].fees[_investor];\n    //     //subtract virtual balance from total funds\n    //     funds[_name].totalBalance -= bal;\n    //     //zero out virtual Balance\n    //     funds[_name].virtualBalances[_investor] = 0;\n    //     //transfer fees back to investor\n    //     _investor.transfer(fees);\n    //     //Zero out fees\n    //     funds[_name].fees[_investor] = 0;\n    //     //set investor status to faslse\n    //     funds[_name].investors[_investor] = false;\n    //     emit FundsWithdrawn(_name, _investor, bal, fees);\n    // }\n\n    //Get fund information (for testing/verification purposes)\n    function getFundDetails(bytes32 _name) public view returns (bytes32, address, uint, uint){\n        return (funds.list[_name].name, \n        funds.list[_name].fundOwner, \n        funds.list[_name].totalBalance, \n        funds.list[_name].feeRate);\n    }\n    //need two functions because of stack height\n    function getFundDetails2(bytes32 _name, address _addr) public view returns (uint, bool, uint, uint){\n        return(funds.list[_name].paymentCycle,\n        funds.list[_name].investors[_addr], \n        funds.list[_name].virtualBalances[_addr],\n        funds.list[_name].fees[_addr]);\n    }\n}",
  "sourcePath": "/home/bryherbz/Documents/final-project-bryanherbert/contracts/FundList.sol",
  "compiler": {
    "name": "solc",
    "version": "0.4.24+commit.e67f0147.Emscripten.clang"
  },
  "schemaVersion": "2.0.1",
  "updatedAt": "2018-12-28T19:03:51.551Z"
}